:020000040800F2
:10000000183E01208102000855030008170300086C
:1000100051030008110300088904000800000000D3
:10002000000000000000000000000000C101000806
:1000300015030008000000001D02000881030008ED
:100040009B0200089B0200089B0200089B0200081C
:100050009B0200089B0200089B0200089B0200080C
:100060009B0200089B0200089B0200089B020008FC
:100070009B0200089B0200089B0200089B020008EC
:100080009B0200089B0200089B0200089B020008DC
:100090009B0200089B0200089B0200089B020008CC
:1000A0009B0200089B0200089B0200089B020008BC
:1000B0009B0200089B0200089B0200089B020008AC
:1000C0009B0200089B0200089B0200089B0200089C
:1000D0009B0200089B0200089B0200089B0200088C
:1000E0009B0200089B0200089B0200089B0200087C
:1000F0009B0200089B0200089B0200089B0200086C
:100100009B0200089B0200089B0200089B0200085B
:100110009B0200089B0200089B0200089B0200084B
:100120009B0200089B0200089B0200089B0200083B
:100130009B0200089B0200089B0200089B0200082B
:100140009B0200089B0200089B0200089B0200081B
:100150009B0200089B0200089B0200089B0200080B
:100160009B0200089B0200089B0200089B020008FB
:100170009B0200089B0200089B0200080000000090
:100180009B0200089B0200089B0200089B020008DB
:100190009B0200089B0200089B0200080000000070
:1001A0009B0200089B0200089B020008DFF80CD0AD
:1001B00000F09CF80048004729070008183E01207D
:1001C0002C4B19680868B0E8F04F80F30988BFF33A
:1001D0006F8F4FF0000080F311887047000000001F
:1001E00008480068006880F308884FF0000080F33A
:1001F000148862B661B6BFF34F8FBFF36F8F00DF15
:1002000000BF00BF08ED00E0DFF80C00016841F41A
:1002100070010160704700BF88ED00E0EFF30980D6
:10022000BFF36F8F134B1A681EF0100F08BF20ED3D
:10023000108A20E9F04F106009B44FF0500080F3AD
:100240001188BFF34F8FBFF36F8F01F063FC4FF046
:10025000000080F3118809BC19680868B0E8F04F05
:100260001EF0100F08BFB0EC108A80F30988BFF3AE
:100270006F8F704768000020EFF305807047000023
:100280000648804706480047FEE7FEE7FEE7FEE730
:10029000FEE7FEE7FEE7FEE7FEE7FEE7B503000840
:1002A000AD01000840EA01039B0703D009E008C93B
:1002B000121F08C0042AFAD203E011F8013B00F82B
:1002C000013B521EF9D27047D2B201E000F8012B77
:1002D000491EFBD270470022F6E710B513460A46C6
:1002E00004461946FFF7F0FF204610BD064C074DA7
:1002F00006E0E06840F0010394E8070098471034F6
:10030000AC42F6D3FFF756FF84250008A425000869
:1003100000BFFEE7704700BFFEE7000010B540F6E3
:10032000024000F0F3FF40F6044000F0EFFF4FF40E
:10033000015301221146054800F0ADF94FF4015375
:1003400002220021014800F0CDF910BD0008024052
:1003500000BFFEE77047000010B5002807DA0A0763
:10036000140E054A00F00F031B1FD45403E00A07C4
:10037000130E024A135410BD18ED00E000E400E033
:1003800010B500BF502080F31188BFF34F8FBFF32B
:100390006F8F00BF01F0A0FE18B14FF080500449EC
:1003A000086000BF002080F3118800BF10BD00006E
:1003B00004ED00E008B53048006840F470002E49B4
:1003C00008602E48006840F001002C49086000BF1A
:1003D0002A48006800F002000028F9D000BF274832
:1003E0000830006840F0800024490831086000208F
:1003F000009002E00098401C009000985028F9D32B
:100400001E480830006840F090001C490831086020
:100410000020009002E00098401C009000985028B6
:10042000F9D300BF15480830006820F003001349D5
:100430000831086011480068114908400F490860F8
:100440000846006820F48020086000200B4908312D
:10045000086000BF09480830006800200028F9D172
:1004600008480649091D0860002004490C3108604D
:1004700001F000F808BD000088ED00E000380240FF
:10048000FFFFF6FE1030002400BFFEE7014A0249DC
:1004900000F013B855050008E400002002E008C889
:1004A000121F08C1002AFAD170477047002001E0EE
:1004B00001C1121F002AFBD170472DE9F0411646F9
:1004C0000F460446002503E03946B047641C6D1C06
:1004D00020780028F8D12846BDE8F08100BF0AA0A6
:1004E000FFF7D4FF40210B4800F0D3F84FF47A70A7
:1004F00001F02CFA4021074800F0C9F84FF47A7057
:1005000001F024FAEBE70000746573742031212FA9
:100510006E0000000008024000BF0AA0FFF7B6FF0F
:100520004FF400510A4800F0B4F8C82001F00EFA68
:100530004FF40051064800F0AAF8C82001F006FA6E
:10054000EBE70000746573742032212F6E00000009
:100550000008024070B504460D46E1B2054801F0BE
:1005600029F800BF0721034801F09BF80028F9D0C3
:10057000204670BD0010014070B505460024274894
:10058000854200D100BF4FF4406000F0BFFE244917
:1005900031F8140000F0BAFE224850F82420072158
:1005A000214800F045F8214850F8242007211E4832
:1005B00000F03EF81B4850F82430012202211A486E
:1005C00000F069F8174850F824300222002116483C
:1005D00000F088F8154850F8243001220221124812
:1005E00000F059F8114850F82430022200210E483A
:1005F00000F078F8284600F0E1FF4FF4E13128469A
:1006000000F064FF0421284601F05AF8082128462A
:1006100001F05EF8284601F03FF870BD001001407F
:100620001C000020200000200000024024000020C8
:10063000F0B503461C6A5D6A00200DE00126864085
:1006400016403EB187000F26BE40B443860001FA33
:1006500006F63443461CB0B20828EFD3082011E058
:100660000126864016405EB1A0F10806B7000F26AD
:10067000BE40B543A0F10806B60001FA06F63543C0
:10068000461CB0B21028EBD31C625D62F0BD8162E3
:10069000704781617047F0B504460D4616462168E3
:1006A000E268002019E0012787401F409FB14FEA10
:1006B000400C032707FA0CF7B943470005FA07F780
:1006C00039434FEA400C032707FA0CF7BA434700B7
:1006D00006FA07F73A43471CB8B21028E3D3216063
:1006E000E260F0BDF0B50C461546012C03D146681A
:1006F0001E43466002E046689E43466082680021D1
:100700000DE001268E401E403EB14F000326BE4044
:10071000B2434E0005FA06F632434E1CB1B2102920
:10072000EFD38260F0BD00001CB500F0A7FE0E48BC
:10073000FFF722FFFFF7F2FD00200421034680228D
:10074000CDE9001009A10C4801F07CFC0020042137
:1007500003468022CDE9001008A10B4801F072FC8D
:1007600001F082F900201CBD001001406170705F33
:100770007461736B31000000DD0400086170705F0C
:100780007461736B32000000190500082DE9F04117
:1007900005460E462648076826480068001D00F0FA
:1007A0009FFF50B92348006890F82C100120884022
:1007B00021490968814320480160681CD8B9D6B135
:1007C0001E4948681B49096888601A498268096897
:1007D000CA6018490968091D82685160154909688D
:1007E000091D8160154A134909684A611146096863
:1007F000491C11601AE07C190E4800684460BC4234
:1008000007D20C480168091D0D48006800F08CFFF4
:100810000CE008480168091D0A48006800F084FFE0
:1008200009480068844201D207480460BDE8F081AD
:100830007C0000206800002080000020DC010020F7
:10084000700000206C0000209800002010B50446C5
:1008500000F084FF31480068401C3049086030488F
:10086000006840B92E4804600846006801280DD190
:1008700000F0B2F90AE02B48006838B9284800684F
:10088000C06AE16A884201D82548046026480068A9
:10089000401C2549086008460068206494F82C1024
:1008A0000120884021490968084320490860E16A1D
:1008B00001EB81011E4A02EB81014868A060826859
:1008C000E260211D826851608160E16A01EB810173
:1008D000174A02EB81026261E16A01EB8101144A6D
:1008E00052F82110491CE26A02EB8202104B43F8D5
:1008F000221000F05DFF0B48006868B108480068EE
:10090000C06AE16A884207D24FF080500949086006
:10091000BFF34F8FBFF36F8F10BD00007800002032
:100920006800002084000020940000208000002047
:100930002801002004ED00E010B500F00FFF104882
:100940000068D0B90F4800F0DFFE0F4800F0DCFE71
:100950000C480E4908600C480D49086000220C2123
:100960000A2001F0D1F9064908600846006820B164
:1009700008A10348006800F093FF00F019FF10BDC4
:10098000B0000020F001002004020020A800002098
:10099000AC000020546D72510000000010B516E04C
:1009A00000F0DCFE0C48C068C468201D00F098FE12
:1009B0000A480068401E0949086009480068401E4E
:1009C0000749086000F0F4FE204600F020F80448D3
:1009D00000680028E4D110BDC80100207800002084
:1009E0007400002070B504460D46206C70B1216C77
:1009F000E0680144E160D4E90210884201D3216833
:100A0000E1602846226CE168FFF74CFC70BD10B530
:100A10000446206B00F0EAFE204600F0E7FE10BD21
:100A20000146084A126812680AB9012200E0002251
:100A30000A600A6822B9034A1268D268106800E0A6
:100A400000207047A800002030B54FF496331548B9
:100A500000F007042CB1C01D20F00700114C041B4E
:100A60001B1B0246104C226000240F4D6C60D018F6
:100A7000083820F007000D4C206000240B4D2D6835
:100A80006C600A4D2D682C601146441A4C60074C6E
:100A900024680C60064D4C682C60064D4C682C6038
:100AA00030BD000018020020BC000020C40000205F
:100AB000CC000020C800002000BFFFF76FFF0648F1
:100AC00000680128F9D94FF0805004490860BFF34D
:100AD0004F8FBFF36F8FF0E72801002004ED00E097
:100AE0002DE9F04106460D4617469846069C0DB97D
:100AF000246000E02760E66325640121204601F0C0
:100B000037F984F84C80BDE8F0812DE9F05F82462A
:100B10000F4690469B460A9E0C9C4FEA8801A522F0
:100B2000206BFFF7D1FBA8F10100216B01EB8009DD
:100B300029F0070909F0070008B9012000E00020AA
:100B400050B900BF502080F31188BFF34F8FBFF31F
:100B50006F8F00BF00BFFEE77FB1002507E0795D22
:100B600004F134004155785D00B902E06D1C0A2D96
:100B7000F5D300BF00213D200155052E01D20120F3
:100B800000E0002050B900BF502080F31188BFF36F
:100B90004F8FBFF36F8F00BF00BFFEE7052E00D35E
:100BA0000426E662A664201D00F0BBFD04F11800D7
:100BB00000F0B7FD2461C6F10500A06164625A46E9
:100BC0005146484600F0FAFA20600B9808B10B989D
:100BD0000460BDE8F09F000010B5002407E004EBBE
:100BE00084010F4A02EB810000F08EFD641C052C8D
:100BF000F5D30C4800F088FD0B4800F085FD0B484C
:100C000000F082FD0A4800F07FFD0A4800F07CFDFC
:100C100004480949086004480849086010BD0000FC
:100C2000280100208C010020A0010020B401002038
:100C3000C8010020DC0100206C00002070000020B2
:100C400010B50146164800E0006803688B42FBD3EC
:100C50000246436813448B4204D143684C682344E2
:100C6000436001460A464B6813440468A34211D10D
:100C70000C4C03682468A34208D04B68046864687D
:100C800023444B6003681B680B6005E0054B1B6841
:100C90000B6001E003680B60884200D0016010BD6A
:100CA000BC000020C40000202DE9F04104460D46A0
:100CB00016461F464FF0000865602461B5420CD807
:100CC000F01BA169884202D34FF0010811E0211DF9
:100CD0000948006800F028FD0BE0BE4204D2BD4286
:100CE00002D34FF0010804E0211D0448006800F021
:100CF0001BFD4046BDE8F081AC000020A8000020AC
:100D000070B5054600F02AFDA86B08B9012400E083
:100D1000002400F04DFD204670BD000070B5054672
:100D20000E460E480068C068C468201D00F0D8FC5C
:100D300094F8280000F0040028B1324629462046E5
:100D400000F0D6F805E094F8280000F0FE0084F8E2
:100D500028002046216A884770BD0000A8000020B6
:100D60007FB57FE0019800287CDB039C606908B9AF
:100D7000012000E0002010B9201D00F0B1FC684601
:100D800000F0E2F8054601980A2869D2DFE800F091
:100D90006805072E365806082F3700BF00BF00BF72
:100DA00094F8280040F0010084F828000298A26915
:100DB000811803462A462046FFF776FFA8B194F82B
:100DC000280000F0040038B10298A26981182A4670
:100DD000204600F08DF805E094F8280000F0FE00B1
:100DE00084F828002046216A88473AE000BF94F83A
:100DF000280000F0FE0084F8280032E000BF94F8DC
:100E0000280040F0010084F828000298A061A06941
:100E100008B1012000E0002050B900BF502080F34D
:100E20001188BFF34F8FBFF36F8F00BF00BFFEE786
:100E3000A06941192B462A462046FFF735FF10E0EE
:100E400094F8280000F0020018B9204600F0CEFC0B
:100E500005E094F8280000F0FE0084F8280000E087
:100E600000BF00BF002201A90348006800F0EEFFA8
:100E700000287FF477AF7FBDB0000020F8B50546AD
:100E80000C4600F03FFE684600F05EF8064600980B
:100E900020BB44B9B54206D801F08CFA3146284649
:100EA000FFF73CFF1CE03CB10E480068006808B941
:100EB000012000E000200446A91B22460A480068E1
:100EC00000F01EFD01F076FA50B94FF0805007494E
:100ED0000860BFF34F8FBFF36F8F01E001F06AFA34
:100EE000F8BD0000AC000020B000002004ED00E0E0
:100EF00070B504460D46164604E0A0690544204638
:100F0000216A8847A06941192B4632462046FFF7DF
:100F1000CBFE0028F1D170BD09480068006808B90F
:100F2000012000E0002020B14FF0FF3005490860AB
:100F300005E003480068C06800680249086070471F
:100F40006C0000209800002070B5044601F0BEF847
:100F5000054607480068854204D200F00BF80120DE
:100F6000206001E00020206001480560284670BD37
:100F7000B800002070B508E00D480068C06804683B
:100F80004FF0FF312046FFF7C9FE094800680068AE
:100F900008B9012000E000200028EDD004480568D1
:100FA00004480068024908600248056070BD0000FE
:100FB000A8000020AC0000200E480068401C08B9C2
:100FC000012000E0002050B900BF502080F31188BC
:100FD000BFF34F8FBFF36F8F00BF00BFFEE700BFAF
:100FE000502080F31188BFF34F8FBFF36F8F00BF86
:100FF00000BFFEE7D800002008B500BF6846FFF735
:101000000FFD044620460099FFF738FFFFF7A8FEC2
:10101000F4E770B5044600F0A1FB94F9455010E0E8
:10102000606A08B9012000E0002038B904F124000A
:1010300001F030F918B100F0C3FC00E003E0681ED5
:1010400045B2002DECDC00BFFF2084F8450000F025
:10105000AFFB00F083FB94F9445010E0206908B91D
:10106000012000E0002048B904F1100001F012F95D
:1010700008B100F0A5FC681E45B200E001E0002DBB
:10108000ECDC00BFFF2084F8440000F091FB70BD51
:101090002DE9F04705464FF0000900F033FD4248C6
:1010A000006808B9FFF7D0FC75B105F00700C0F182
:1010B0001008C8F1FF30A84201D2012000E0002052
:1010C00008B9454400E00025012000EBE570002848
:1010D00053D0002D51D03548006885424DD8344E4C
:1010E0003046046801E0264624686068A84202D2BF
:1010F00020680028F7D12C48006884423DD0306831
:1011000000F10809206830606068401B102819D978
:10111000671907F0070008B9012000E0002050B966
:1011200000BF502080F31188BFF34F8FBFF36F8F44
:1011300000BF00BFFEE76068401B7860656038460E
:10114000FFF77EFD194960680968081A17490860A9
:101150000846006817490968884203D213480068A6
:1011600014490860606840F0004060600020206022
:1011700011480068401C1049086001F01BF909F093
:10118000070008B9012000E0002050B900BF50203E
:1011900080F31188BFF34F8FBFF36F8F00BF00BF85
:1011A000FEE74846BDE8F087C4000020C8000020E4
:1011B000BC000020CC000020D0000020001F4FF019
:1011C00080730360001F21F001030360001F054BC3
:1011D000036014380260001F6FF0020303602038C0
:1011E00070470000B90F00082DE9F04F8CB006469B
:1011F00000200A903EA090E8004CC068CDE905BEF2
:10120000CDF810A007900FF2EC0ADAE9000ACDE958
:10121000020A0FF2E00ADAE9000ACDE9000A3848CA
:101220000068C0F381000B900B9820B1012804D016
:10123000022828D103E0334927E0334925E030482C
:10124000001F006800F03F072D48001F0068C0F332
:10125000881C2B48001F0068C0F30140401C4FEA67
:1012600040092748001F006800F48008B8F5800F87
:1012700001D1254B00E0234BB3FBF7F000FB0CF052
:10128000B0FBF9F101E01F4900BF00BF1C48006836
:10129000C0F3031404A8055D21FA05F2184800689C
:1012A000C0F3822402A8055D22FA05F009901448D3
:1012B0000068C0F342341DF8045022FA05F008908B
:1012C00036B1012E06D0022E06D0032E0AD106E03A
:1012D0000A9108E00A9206E009980A9003E008984B
:1012E0000A9000E000BF00BF0A980CB0BDE8F08F84
:1012F00000000000000000000102030406070809C6
:10130000083802400024F40040787D01074A02EBCF
:101310009011D1F8001800F01F0301229A401143E8
:10132000024B03EB9012C2F80018704700300240E5
:10133000074A02EB9011D1F8001800F01F030122B8
:101340009A409143024B03EB9012C2F80018704789
:1013500000300240074A02EB9011D1F8001800F06B
:101360001F0301229A401143024B03EB9012C2F873
:101370000018704700300240002000213A4A1268ED
:1013800042F48032384B1A6000BF401C364A126863
:1013900002F4003119B94FF6FF729042F5D1324A8A
:1013A000126802F400320AB900BFFEE72E4A40324A
:1013B000126842F080522C4B40331A602B4A12685C
:1013C00042F44042294B1A60274A08321268264BE1
:1013D00008331A601A46126842F400421A601A462C
:1013E000126842F4A0521A60214A1B1F1A601A1F89
:1013F000126842F080721B1F1A6000BF1A4A1268FE
:1014000002F00072002AF9D0184A126842F48032C1
:10141000164B1A6000BF154A526802F48032002A47
:10142000F9D0124A126842F40032104B1A6000BF21
:101430000E4A526802F40032002AF9D00A4A0832F1
:10144000126822F00302084B08331A601A46126829
:1014500042F002021A6000BF034A0832126802F02A
:101460000802002AF8D0704700380240007000409F
:101470001964400910B5FFF77FFF10BD10B5124881
:1014800000684FF47A71B0FBF1F4601EB0F1807F18
:1014900001D301200FE0601E4FF0E02148610F21D1
:1014A0004FF0FF30FEF758FF00204FF0E021886139
:1014B00007200861002008B100BFFEE70021481E98
:1014C000FEF74AFF10BD0000000000202DE9F047A4
:1014D00004460D460027B846B94600263349601A2F
:1014E0008C4235D00CDC32482044E8B1B0F5806F36
:1014F0001FD0B0F5006F21D0B0F5406F32D122E09F
:10150000B0F5806F29D0B0F5184F03D0B0F51C4F5F
:1015100028D104E00320FFF767FE074623E00320FD
:10152000FFF762FE07461EE00220FFF75DFE07465A
:1015300019E00220FFF758FE074614E00220FFF7EB
:1015400053FE07460FE00220FFF74EFE07460AE073
:101550000220FFF749FE074605E00220FFF744FEA0
:10156000074600E000BF00BFE06800F4004070B133
:10157000780000EB5500B0FBF5F64FF6F07006EA88
:101580000008C6F3420948EA0900A0600CE007EB36
:101590005500B0FBF5F64FF6F07006EA000806F0CD
:1015A0000F0948EA0900A060BDE8F0870078004014
:1015B00000BCFFBFC1F308024260704710B504468B
:1015C0003349601A8C424DD00CDC32482044E0B1E3
:1015D000B0F5806F22D0B0F5006F31D0B0F5406F1C
:1015E00052D136E0B0F5806F45D0B0F5184F03D03A
:1015F000B0F51C4F48D11AE040F60410FFF7AAFEE0
:1016000040F60410FFF794FE3FE040F61100FFF7AC
:10161000A1FE40F61100FFF78BFE36E040F6120007
:10162000FFF798FE40F61200FFF782FE2DE040F62D
:101630000510FFF78FFE40F60510FFF779FE24E056
:1016400040F61300FFF786FE40F61300FFF770FE2A
:101650001BE040F61400FFF77DFE40F61400FFF794
:1016600067FE12E040F61E00FFF774FE40F61E0013
:10167000FFF75EFE09E040F61F00FFF76BFE40F645
:101680001F00FFF755FE00E000BF00BF10BD0000C7
:101690000078004000BCFFBFC16841F40051C16048
:1016A000704710B5024602EB9110006801F01F046C
:1016B0000123A340184008B1012010BD0020FCE721
:1016C0000A460021C16821F004011143C16070473E
:1016D0000A460021C16821F008011143C16070472A
:1016E00001460A69D1E901309860D1E901035860E7
:1016F0005068884201D188685060002008611068F5
:10170000401E10601068704700F1080141604FF002
:10171000FF31816000F10801C160016100210160B9
:10172000704700210161704710B502460B685C1CD0
:101730000CB9106907E002F1080000E04068446855
:1017400024689C42FAD944684C604C68A160886067
:1017500041600A611468641C146010BD00BF502011
:1017600080F31188BFF34F8FBFF36F8F00BF0E4818
:101770000068401C0C49086008460068012812D126
:101780000A480068C0B208B9012000E0002050B942
:1017900000BF502080F31188BFF34F8FBFF36F8FCE
:1017A00000BF00BFFEE77047D800002004ED00E056
:1017B0000D48006850B900BF502080F31188BFF376
:1017C0004F8FBFF36F8F00BF00BFFEE70648006872
:1017D000401E054908600846006820B9002080F3D3
:1017E000118800BF00BF7047D800002070B50646C2
:1017F0003546002E3BD0083D2C466068C00F50B9DE
:1018000000BF502080F31188BFF34F8FBFF36F8F5D
:1018100000BF00BFFEE7206808B9012000E00020FB
:1018200050B900BF502080F31188BFF34F8FBFF332
:101830006F8F00BF00BFFEE76068C00FB8B12068BF
:10184000A8B9606820F00040606000F05BF90849CA
:10185000606809680844064908602046FFF7F0F907
:1018600004480068401C0349086000F0A3FD70BDF7
:10187000C8000020D400002000204FF0E0210861C3
:101880008861064800684FF47A71B0FBF1F0401EA1
:101890004FF0E021486107200861704700000020F8
:1018A00030B502460B46002152B900BF502484F3E4
:1018B0001188BFF34F8FBFF36F8F00BF00BFFEE7EC
:1018C000BBB1002012E00D4C04EBC00464689442EC
:1018D00003D10A4C04EBC0010AE031B9074C54F8BB
:1018E000304014B9054C04EBC001401C0828EAD371
:1018F00000BF09B10B604A6030BD0000E800002065
:101900002DE9F04105460E4617462C46FFF726FF07
:1019100094F94400401C10B9002084F8440094F964
:101920004500401C10B9002084F84500FFF740FF37
:10193000A06B28B93A46314604F1240000F062F861
:101940002046FFF766FBBDE8F081000070B5044655
:101950000025D4B11248006808B9012000E0002039
:1019600050B900BF502080F31188BFF34F8FBFF3F1
:101970006F8F00BF00BFFEE700F0C4F800212046D3
:10198000FEF704FF00F016FD05463DB94FF080500C
:1019900004490860BFF34F8FBFF36F8F70BD000025
:1019A000A400002004ED00E0034909680160034938
:1019B0000968416070470000900000207C00002012
:1019C00001200149086070478C00002070B5044672
:1019D0000D4654B900BF502080F31188BFF34F8FDC
:1019E000BFF36F8F00BF00BFFEE7054801681831E5
:1019F0002046FFF799FE01212846FEF7C7FE70BD7D
:101A00006800002070B504460E46154654B900BF64
:101A1000502080F31188BFF34F8FBFF36F8F00BF4B
:101A200000BFFEE760680F490968C8610D49826818
:101A300009680A620B4909681831826851600949CE
:101A4000096818318160074909688C622168491C5E
:101A500021600DB14FF0FF3629463046FEF796FE65
:101A600070BD0000680000201CB51E4800210B4618
:101A70008222CDE900101CA11D4800F0E3FA0446C3
:101A8000012C02D100F052FD0446012C15D100BFFB
:101A9000502080F31188BFF34F8FBFF36F8F00BFCB
:101AA0004FF0FF30134908600120134908600020FF
:101AB0001249086000F074F810E0601C08B10120C1
:101AC00000E0002050B900BF502080F31188BFF320
:101AD0004F8FBFF36F8F00BF00BFFEE7084800685D
:101AE0001CBD00009C00002049444C450000000043
:101AF000B90A000898000020840000207C00002023
:101B0000A000002002480068401C0149086070479E
:101B1000A40000201D48006818B101201C4908607D
:101B200032E000201A4908601A480068B0FA80F0D4
:101B3000C0F11F0101EB8100174A52F8200008B1E3
:101B4000012000E0002050B900BF502080F3118830
:101B5000BFF34F8FBFF36F8F00BF00BFFEE701EBF6
:101B600081020D4B03EB820042685268426000F133
:101B700008024368934202D1426852684260426858
:101B8000D268064B1A6000BF70470000A400002016
:101B90008C00002080000020280100206800002028
:101BA0001CB5524800685249884201D0012000E02B
:101BB000002050B900BF502080F31188BFF34F8F31
:101BC000BFF36F8F00BF00BFFEE748480068484979
:101BD000491E884201D0012000E0002050B900BF1A
:101BE000502080F31188BFF34F8FBFF36F8F00BF7A
:101BF00000BFFEE73F49084600780190FF200A46F3
:101C000010700846007800909DF8000000F0F00089
:101C10009DF80020904201D1012000E0002050B941
:101C200000BF502080F31188BFF34F8FBFF36F8F39
:101C300000BF00BFFEE79DF8000000F050002E4AF4
:101C4000107007202D4A106009E02C480068401EE3
:101C50002A4A10609DF800004006000E00909DF892
:101C6000000000F080008028EFD024480068C0F118
:101C70000700042801D1012000E0002050B900BF76
:101C8000502080F31188BFF34F8FBFF36F8F00BFD9
:101C900000BFFEE7194800680002184A10601046AD
:101CA000008800F4E0601060124A019810700F483C
:101CB0002030006840F470000C492031086008466C
:101CC000006840F070400860FFF7D6FD00200C4926
:101CD0000860FEF799FA0B48006840F04040094957
:101CE0000860FEF77DFA00201CBD000000ED00E05A
:101CF00071C20F4100E400E0DC000020E0000020A1
:101D0000D800002034EF00E02DE9F84305460E46E8
:101D100017460024E5B1601EB0FBF5F0B04217D3C2
:101D200005FB06F010F1510F12D805FB06F808F17B
:101D30005000FFF7ADF90446B4B1A14609F15009CE
:101D40003B464A46314628460094FEF7C9FE0BE062
:101D500054B900BF502080F31188BFF34F8FBFF3F9
:101D60006F8F00BF00BFFEE72046BDE8F88300008C
:101D70002DE9F04105460E4601272C4654B900BF17
:101D8000502080F31188BFF34F8FBFF36F8F00BFD8
:101D900000BFFEE7002C42D0E06B00283FD04FF0A0
:101DA000FF31E06BB1FBF0F0216C884237D3FFF7D5
:101DB000D5FCD4E90F12206801FB0200A0600020CE
:101DC000A06320686060E06B401E226C216800FB0D
:101DD0000211E160FF2084F8440084F845009EB9B8
:101DE000206908B9012000E00020A8B904F1100022
:101DF00000F050FA80B14FF0805013490860BFF3F3
:101E00004F8FBFF36F8F07E004F11000FFF77CFCEA
:101E100004F12400FFF778FCFFF7CAFC00E000277C
:101E20000FB1012000E0002050B900BF502080F326
:101E30001188BFF34F8FBFF36F8F00BF00BFFEE766
:101E40003846BDE8F081000004ED00E02DE9F741DF
:101E500083B005460E464FF000082C4654B900BF2B
:101E6000502080F31188BFF34F8FBFF36F8F00BFF7
:101E700000BFFEE70EB9206C08B9012000E0002089
:101E800050B900BF502080F31188BFF34F8FBFF3CC
:101E90006F8F00BF00BFFEE700F008F908B9059892
:101EA00008B9012000E0002050B900BF502080F3A5
:101EB0001188BFF34F8FBFF36F8F00BF00BFFEE7E6
:101EC00000BFFFF74BFCA76BF7B131462046FEF78A
:101ED00089FD781EA063206908B9012000E0002078
:101EE00060B904F1100000F0D5F938B14FF080501E
:101EF0002F490860BFF34F8FBFF36F8FFFF758FC78
:101F0000012006B0BDE8F081059818B9FFF750FC34
:101F10000020F6E7B8F1000F04D101A8FFF744FD57
:101F20004FF00108FFF744FCFFF7ECFDFFF716FC4C
:101F300094F94400401C10B9002084F8440094F93E
:101F40004500401C10B9002084F84500FFF730FC24
:101F500005A901A800F02EF8F0B92046FEF7D0FE42
:101F6000A0B104F124000599FFF730FD2046FFF7EA
:101F700050F800F01FFA0028A3D14FF080500C4910
:101F80000860BFF34F8FBFF36F8F9AE72046FFF7CC
:101F900040F800F00FFA94E72046FFF73AF800F017
:101FA00009FA2046FEF7ACFE00288AD00020A8E7F8
:101FB00004ED00E070B505460C4655B900BF502051
:101FC00080F31188BFF34F8FBFF36F8F00BF00BF47
:101FD000FEE754B900BF502080F31188BFF34F8F44
:101FE000BFF36F8F00BF00BFFEE7FFF7B7FB1348DB
:101FF00002686868131A2068401C08B9002619E0B6
:102000000F4928680968884206D06868904203D85A
:102010000126002020600DE02068984207D9206842
:10202000C01A20602846FFF7BFFC002602E000200F
:1020300020600126FFF7BCFB304670BD7C0000200D
:10204000900000202DE9FF4F85B080468946174655
:10205000DDE912ABB800FFF71BF8064676B1582051
:10206000FFF716F804462CB158212046FEF733F945
:10207000266304E03046FFF7B9FB00E000247CB1A2
:102080000020CDE900ABCDE902403A464946404642
:10209000089BFEF73AFD2046FEF7D8FB012501E03C
:1020A0004FF0FF35284609B0BDE8F08F05490968B3
:1020B00009B9012005E00449096809B9022000E0D6
:1020C0000020704784000020A40000200149086817
:1020D000704700007C0000202DE9F0414FF000081F
:1020E0006148006800287DD160480068451C5F4851
:1020F000056015BB5E480068006808B9012000E073
:10210000002050B900BF502080F31188BFF34F8FDB
:10211000BFF36F8F00BF00BFFEE755480768554803
:102120000068534908605348076053480068401CE2
:1021300051490860FEF7F0FE00BF50480068854234
:1021400077D300BF4A480068006808B9012000E062
:10215000002020B14FF0FF304849086068E0444853
:102160000068C068C4686668B54202D24348066029
:102170005EE06069D4E902128A60D4E902214A6013
:10218000211D42688A4201D1E168416000226261FA
:102190000168491E0160A06A98B1A06AD4E90712DB
:1021A0008A60D4E907214A6004F1180142688A4232
:1021B00001D1216A41600022A2620168491E0160CA
:1021C00000BF94F82C10012088402D49096808436D
:1021D0002B490860E16A01EB81012A4A02EB810187
:1021E000486800E037E0A0608268E260211D8268F4
:1021F00051608160E16A01EB8101224A02EB8102B8
:102200006261E16A01EB81011E4A52F82110491C0A
:10221000E26A02EB82021B4B43F822101A49E06A81
:102220000968C96A88428DD94FF001088AE700E041
:1022300000BF15480068C06A00EB8000114951F8E2
:102240002000012801D94FF001081048006808B1AA
:102250004FF0010804E00E480068401C0C4908607B
:102260004046BDE8F0810000A40000207C00002072
:102270006C000020700000209000002098000020DA
:102280008000002028010020680000208C00002031
:102290008800002070B50346D868C16851B900BFF6
:1022A000502080F31188BFF34F8FBFF36F8F00BFB3
:1022B00000BFFEE7886AD1E90745A560D1E9075468
:1022C000656001F118044568A54201D10C6A4460BB
:1022D00000258D620468641E046030480068002890
:1022E0003DD14869D1E90245A560D1E90254656054
:1022F0000C1D4568A54201D1CC68446000254D61A4
:102300000468641E046091F82C400120A040244C15
:1023100024682043224C2060CC6A04EB8404214DC5
:1023200005EB8404606888608568CD600C1D856855
:102330006C608460CC6A04EB84041A4D05EB840560
:102340004D61CC6A04EB8404164D55F82440641C9E
:10235000CD6A05EB8505134E46F8254010E0124C7A
:102360006068C86185680D6201F1180485686C6059
:1023700084600D4D8D622C462468641C2C6000BF67
:102380000A4CC86A2468E46AA04204D901220120E8
:10239000074C206000E00022104670BDA400002021
:1023A0008000002028010020B401002068000020E7
:1023B0008C00002070B5002400265348006850B9F6
:1023C00000BF502080F31188BFF34F8FBFF36F8F92
:1023D00000BF00BFFEE7FFF7C1F94B480068401E91
:1023E000494908600846006800287DD147480068D0
:1023F000002879D05BE04648C068C468A06AD4E988
:1024000007128A60D4E907214A6004F11801426882
:102410008A4201D1216A41600022A2620168491EFC
:1024200001606069D4E902128A60D4E902214A603D
:10243000211D42688A4201D1E16841600022626147
:102440000168491E016094F82C1001208840314930
:10245000096808432F490860E16A01EB81012E4AAF
:1024600002EB81014868A0608268E260211D8268F9
:1024700051608160E16A01EB8101274A02EB810230
:102480006261E16A01EB8101234A52F82110491C83
:10249000E26A02EB8202204B43F822101F49E06AF5
:1024A0000968C96A884202D301201D49086018489A
:1024B000006808B9012000E0002000289BD00CB182
:1024C000FEF72AFD1748056865B100BFFFF704FE57
:1024D00010B10120124908606D1E002DF6D10020B8
:1024E000104908600E4800E009E0006838B1012694
:1024F00030070D490860BFF34F8FBFF36F8FFFF7B1
:1025000057F9304670BD0000A4000020780000207C
:10251000B401002080000020280100206800002075
:102520008C0000208800002004ED00E01CB5002491
:10253000FEF702FA0E48006858B10E480221002347
:102540004FF48272CDE900100BA10D48FFF77AFD20
:10255000044654B900BF502080F31188BFF34F8F59
:10256000BFF36F8F00BF00BFFEE720461CBD000019
:10257000B0000020B4000020546D72205376630038
:10258000F90F0008A425000800000020E800000062
:102590009C0400088C260008E8000020303D010063
:1025A000AC04000800C2EB0B001002400010024017
:1025B00000140240040000000800000000040000B5
:1025C000041100000002000000040000040C040CD0
:1025D000050C000000000240000802400004024018
:1025E000010000000020000000400000000C020C70
:1025F000010C00000100000000200000004000006D
:10260000000201000D0E0628280000000000000056
:1026100000000000000000000000000000000000BA
:1026200000000000000000000000000000000000AA
:10263000000000000000000000000000000000009A
:102640000000000004000000000000000000000086
:10265000000000000000000000000000000000007A
:10266000000000000000000000000000000000006A
:10267000000000000000000000000000AAAAAAAAB2
:0C2680000000000000000000000000004E
:04000005080001AD41
:00000001FF
