:020000040800F2
:1040000090BA0400814200085D4400082D44000875
:1040100059440008014400089544000800000000CD
:10402000000000000000000000000000C141000886
:1040300005440008000000001D420008614400081B
:1040400097420008974200089742000897420008EC
:1040500097420008974200089742000897420008DC
:1040600097420008974200089742000897420008CC
:1040700097420008974200089742000897420008BC
:1040800097420008974200089742000897420008AC
:10409000974200089742000897420008974200089C
:1040A000974200089742000897420008974200088C
:1040B000974200089742000897420008974200087C
:1040C000974200089742000897420008974200086C
:1040D000974200089742000897420008974200085C
:1040E00009440008974200089742000897420008D8
:1040F000974200089742000897420008974200083C
:10410000974200089742000897420008974200082B
:10411000974200089742000897420008974200081B
:10412000974200089742000897420008974200080B
:1041300097420008974200089742000897420008FB
:1041400097420008974200089742000897420008EB
:1041500097420008974200089742000897420008DB
:1041600097420008974200089742000897420008CB
:10417000974200089742000897420008000000009C
:1041800097420008974200089742000897420008AB
:10419000974200089742000897420008000000007C
:1041A000974200089742000897420008DFF80CD0B9
:1041B00000F0CAF8004800475D4D000890BA0400BE
:1041C0002C4B19680868B0E8F04F80F30988BFF3FA
:1041D0006F8F4FF0000080F31188704700000000DF
:1041E00008480068006880F308884FF0000080F3FA
:1041F000148862B661B6BFF34F8FBFF36F8F00DFD5
:1042000000BF00BF08ED00E0DFF80C00016841F4DA
:1042100070010160704700BF88ED00E0EFF3098096
:10422000BFF36F8F134B1A681EF0100F08BF20EDFD
:10423000108A20E9F04F106009B44FF0500080F36D
:104240001188BFF34F8FBFF36F8F02F0B3F84FF0B9
:10425000000080F3118809BC19680868B0E8F04FC5
:104260001EF0100F08BFB0EC108A80F30988BFF36E
:104270006F8F704750000400EFF305807047000017
:1042800005480047FEE7FEE7FEE7FEE7FEE7FEE73C
:10429000FEE7FEE7FEE7FEE7AD41000840EA010366
:1042A0009B0703D009E008C9121F08C0042AFAD2EC
:1042B00003E011F8013B00F8013B521EF9D27047B0
:1042C000D2B201E000F8012B491EFBD27047002258
:1042D000F6E710B513460A4604461946FFF7F0FF05
:1042E000204610BD2DE9F05F0546002092469B4612
:1042F00088460646814640241BE0284641464746FC
:10430000224600F042F853465A46C01A914110D353
:1043100011461846224600F029F82D1A67EB0108CD
:104320004F4622460120002100F020F817EB00093B
:104330004E41201EA4F10104DFDC484631462A46E6
:104340004346BDE8F09F0000064C074D06E0E068DC
:1043500040F0010394E8070098471034AC42F6D3CC
:10436000FFF728FFB4710008D4710008202A04DB8D
:10437000203A00FA02F1002070479140C2F1200378
:1043800020FA03F3194390407047202A04DB203AB7
:1043900021FA02F00021704721FA02F3D040C2F165
:1043A0002002914008431946704770B58C1810F8E8
:1043B000015B15F0070301D110F8013B2A1106D16A
:1043C00010F8012B03E010F8016B01F8016B5B1E84
:1043D000F9D12B0705D40023521E0DD401F8013B5F
:1043E000FAE710F8013BCB1A921C03E013F8015BCB
:1043F00001F8015B521EF9D5A142D8D3002070BD4F
:1044000000BFFEE77047000008B54FF4005000F011
:104410005DFB40B169460448006802F067F94FF45B
:10442000005000F04DFB08BD4800040000BFFEE74F
:1044300010B540F6044001F03FFB0C230122114669
:10444000044800F043FC0C2302220021014800F044
:1044500064FC10BD0010024000BFFEE77047000082
:1044600010B500BF502080F31188BFF34F8FBFF30A
:104470006F8F00BF02F0D2FB18B14FF0805004499B
:10448000086000BF002080F3118800BF10BD00004D
:1044900004ED00E000BFFEE70FB4054B10B503A923
:1044A000044A029800F018F810BC5DF814FB0000F4
:1044B000F14A00085C01040002E008C8121F08C1AC
:1044C000002AFAD170477047002001E001C1121F95
:1044D000002AFBD1704700002DE9FF4F8DB00F4639
:1044E0000546002606E025280BD0DDE90F1290478F
:1044F0006D1C761C28780028F5D111B03046BDE837
:10450000F08F0024A246A1460122EC4900E00443BA
:1045100015F8013F203B02FA03F00842F7D1287852
:104520002A2810D06FF02F022878A0F13001092935
:1045300014D80AEB8A0102EB410144F0020400EBBB
:10454000010A6D1CF0E701CF5FEA000A03D544F4CD
:104550000054CAF1000A44F002046D1C28782E2889
:1045600017D115F8010F44F004042A280ED06FF07B
:104570002F022878A0F1300109290AD809EB890116
:1045800002EB410100EB01096D1CF2E757F8049BB7
:104590006D1C28786C280FD006DC4C2817D06828B2
:1045A0000DD06A2814D104E0742810D07A280FD1D5
:1045B0000DE044F400140AE044F4801401E044F4F3
:1045C00040146978814202D104F580146D1C6D1C81
:1045D0002A786E2A1FD00CDC632A31D004DC002A32
:1045E0008BD0582A11D1A3E0642A68D0692A0CD153
:1045F00065E0732A2ED004DC6F2A73D0702A04D1B0
:104600009BE0752A6FD0782A6ED01046DDE90F1234
:104610009047761C50E1C4F30250022806D00328CC
:1046200009D0042801CF09D0066045E101CFF11778
:10463000C0E9006140E101CF06803DE106703BE149
:1046400017F8040B8DF8000000208DF80100EB46F0
:10465000012003E057F804BB4FF0FF3061074FF033
:10466000000102D40DE008F10101884649450FDA46
:104670008045F8DB1BF808100029F4D108E008F1A8
:10468000010188468142FADB1BF808100029F6D1A7
:10469000DDE90F23AAEB08008146214600F036F938
:1046A000304400EB080604E0DDE90F121BF8010BB3
:1046B0009047B8F10108F7D221464846F7E00A21B1
:1046C000C4F302534FF0000B0891022B04D001CF2A
:1046D000C117032B09D00AE0FF1D27F00707F7E8F1
:1046E000020108E032E01FE020E000B2C117042B15
:1046F00001D140B2C117031E71F1000307DA4FF078
:10470000000CD0EB0C006CEB01012D2302E0230523
:1047100004D52B238DF82430012303E0E30701D0D7
:104720002023F7E7984658E00A2110E010210EE018
:1047300010204FF0000B08900CE010214FF0000B00
:1047400044F004044FF00809089103E008214FF0F9
:10475000000B0891C4F30253022B04D001CF0021B7
:10476000032B06D006E0FF1D27F00707F7E802013C
:1047700003E080B2042B00D1C0B24FF00008230741
:104780002BD5702A07D0DDF820C08CF0100C5CEA25
:104790000B0C05D00EE040238DF82430012308E0F7
:1047A00050EA010306D030238DF824308DF82520FF
:1047B00002239846DDF820C08CF0080C5CEA0B0C54
:1047C0000BD150EA010301D1630706D530238DF8E0
:1047D00024304FF00108A9F10109582A04D038A269
:1047E0000B9208AA0A920BE03AA2F9E75B46089AF4
:1047F000FFF778FD0B9B9B5C0A9A521E0A9213707E
:1048000050EA0102F2D10A98ADEB000000F1200B52
:10481000600702D524F4803401E04FF00109D94546
:1048200002DDA9EB0B0000E0002000EB0B0141448E
:104830000890AAEB010AE00306D4DDE90F23214624
:10484000504600F063F806444FF0000908E009A95B
:1048500011F80900DDE90F12904709F10109761CF2
:10486000C145F4DBE0030CD5DDE90F2321465046BA
:1048700000F04CF8064404E0DDE90F1230209047C8
:10488000761C0899481E08900029F5DC08E00A9873
:104890000A990078491C0A91DDE90F129047761CAD
:1048A000BBF10001ABF1010BF1DC21465046DDE923
:1048B0000F2300F019F806446D1C1BE609280100BF
:1048C0003031323334353637383961626364656686
:1048D0000000000030313233343536373839414248
:1048E00043444546000000002DE9F0410446002500
:1048F0001E461746880404D405E039462020B047F8
:104900006D1C641EF9D52846BDE8F0812DE9F04103
:10491000044600251E469046C80301D5302700E016
:104920002027880404D505E041463846B0476D1C71
:10493000641EF9D52846BDE8F081000000BF4FF0A5
:10494000FF311348006802F00DF80446012C06D030
:1049500002F05EF9054629460EA0FFF79DFD02F024
:1049600057F9054629460FA0FFF796FD0421124886
:1049700000F079F94FF47A7001F0ACFB04210E4895
:1049800000F06FF94FF47A7001F0A4FBD7E7000054
:1049900048000400626C6F636B206572722025759D
:1049A0000D0A00007461736B3120656E74657220AE
:1049B00025750D0A000000000010024000BF02F043
:1049C00027F90446214609A0FFF766FD08210C4897
:1049D00000F049F9C82001F07DFB0821084800F0EB
:1049E00040F9C82001F076FBE9E700007461736BC1
:1049F0003220656E7465722025750D0A0000000076
:104A00000010024010B52D4B1B6883432B4C2360D4
:104A1000231D1B688343241D2360231D1B688343C0
:104A2000241D2360231D1B688343241D236011B1B3
:104A300001290ED105E0214B1B6803431F4C236065
:104A400008E01E4B1B1D1B6803431C4C241D2360E8
:104A500000E000BF00BF32B1012A11D0022A1CD0F1
:104A6000032A27D127E0154B08331B680343134C57
:104A700008342360231D1B688343241D23601BE02F
:104A80000E4B08331B6883430C4C08342360231DF2
:104A90001B680343241D23600EE0084B08331B688A
:104AA0000343064C08342360231D1B680343241D65
:104AB000236001E000BF00BF00BF10BD003C01400B
:104AC0000149086070470000143C01400146074856
:104AD000006800EA010205481438006800EA010392
:104AE00012B10BB1012070470020FCE7143C0140DB
:104AF00070B504460D46E1B2054801F0DDF800BF8F
:104B00000721034801F04FF90028F9D0204670BD75
:104B10000010014070B5054600243248854200D19E
:104B200003E03148854200D10124304931F81400B6
:104B300000F0C2FF2E4931F8140000F0BDFF2D4BEC
:104B400053F824202C4B53F824102C4B53F82400FA
:104B500000F058F82A4B53F82420274B53F8241020
:104B6000264B53F8240000F04DF8224951F8243028
:104B7000224951F824000122022100F0A7F81D4922
:104B800051F824301D4951F824000222002100F080
:104B9000C4F81B4951F82430184951F82400012267
:104BA000022100F093F8164951F82430134951F8C6
:104BB00024000222002100F0B0F8284601F080F81D
:104BC0004FF4E131284601F003F80421284601F0B2
:104BD000F9F80821284601F0FDF8284601F0DEF832
:104BE00070BD00000010014000140140E800040006
:104BF000E4000400EC00040004010400FC000400D4
:104C0000F4000400F0B503461C6A5D6A00200DE064
:104C10000126864016403EB187000F26BE40B443B1
:104C2000860001FA06F63443461CB0B20828EFD3DA
:104C3000082011E00126864016405EB1A0F108066A
:104C4000B7000F26BE40B543A0F10806B60001FA32
:104C500006F63543461CB0B21028EBD31C625D62E9
:104C6000F0BD8162704781617047000010B540F669
:104C7000024000F021FF41F20E1000F01DFF4FF442
:104C80000053002211460F4800F020F800220721AF
:104C9000282000F0BFF80D21022000F043FF002281
:104CA00011464FF40050FFF7ADFE4FF40050FFF7F0
:104CB00007FF03220021012001F076FC0249086071
:104CC00010BD00000008024048000400F0B5044692
:104CD0000D4616462168E268002019E0012787404A
:104CE0001F409FB14FEA400C032707FA0CF7B94366
:104CF000470005FA07F739434FEA400C032707FA44
:104D00000CF7BA43470006FA07F73A43471CB8B214
:104D10001028E3D32160E260F0BDF0B50C461546E3
:104D2000012C03D146681E43466002E046689E435C
:104D30004660826800210DE001268E401E403EB193
:104D40004F000326BE40B2434E0005FA06F632433A
:104D50004E1CB1B21029EFD38260F0BD1CB51948CA
:104D6000FFF7D8FE0021084600F0C0F8FFF760FB0F
:104D7000FFF77CFF4FF4407000F0AEF81148FFF7EA
:104D8000C9FE11A0FFF788FB0FA0FFF785FB0EA05F
:104D9000FFF782FB1548042100234A02CDE90010E9
:104DA00013A1164801F0F0FE1548042100234A0221
:104DB000CDE9001013A1164801F0E6FE01F0A4FAB7
:104DC00000BFFEE7001001402323232323232323D6
:104DD00023232323232323232323232323232323A3
:104DE00023232323232323230D0A00000000040090
:104DF0006170705F7461736B310000003D490008A1
:104E0000040004006170705F7461736B3200000015
:104E1000BD4900082DE9F04103460D461646002421
:104E20000027A0462A48006800F4E060B0F5E06F73
:104E300003D100BF4FF0040830E02548006800F4BB
:104E4000E060B0F5C06F03D101274FF0030825E003
:104E50001F48006800F4E060B0F5A06F02D102279F
:104E6000B8461BE01A48006800F4E060B0F5806FB7
:104E700003D103274FF0010810E01548006800F443
:104E8000E060B0F5407F03D104274FF0000805E053
:104E90004FF4A06000F020F80227B846C7F10400E4
:104EA00005FA00F4C8F104010F20C8403040044363
:104EB00024010848C45403F01F01012088405911FF
:104EC000890001F1E021C1F80001BDE8F081000096
:104ED0000CED00E000E400E002490143024A1160E9
:104EE000704700000000FA050CED00E0034A0A409C
:104EF0000243034B1A60BFF34F8F704780FFFF1FC1
:104F000008ED00E02DE9F04105460E462648076809
:104F100026480068001D00F065FF50B9234800686E
:104F200090F82C10012088402149096881432048CD
:104F30000160681CD8B9D6B11E4948681B49096888
:104F400088601A4982680968CA6018490968091D99
:104F50008268516015490968091D8160154A134925
:104F600009684A6111460968491C11601AE07C19F8
:104F70000E4800684460BC4207D20C480168091D15
:104F80000D48006800F058FF0CE008480168091D52
:104F90000A48006800F050FF09480068844201D2C6
:104FA00007480460BDE8F08164000400500004007C
:104FB0006800040054020400580004005400040077
:104FC0008000040010B5044600F050FF314800682E
:104FD000401C304908603048006840B92E480460E1
:104FE0000846006801280DD100F0BCF90AE02B4802
:104FF000006838B928480068C06AE16A884201D868
:105000002548046026480068401C25490860084679
:105010000068206494F82C10012088402149096818
:10502000084320490860E16A01EB81011E4A02EB56
:1050300081014868A0608268E260211D8268516039
:105040008160E16A01EB8101174A02EB8102626132
:10505000E16A01EB8101144A52F82110491CE26A0D
:1050600002EB8202104B43F8221000F029FF0B489C
:10507000006868B108480068C06AE16A884207D2DF
:105080004FF0805009490860BFF34F8FBFF36F8F17
:1050900010BD000060000400500004006C0004001B
:1050A0007C00040068000400A001040004ED00E09E
:1050B00010B500F0DBFE10480068D0B90F4800F0D2
:1050C000ABFE0F4800F0A8FE0C480E4908600C48E3
:1050D0000D49086000220C210A2001F065FA0649FA
:1050E00008600846006820B108A10348006800F085
:1050F0009BFF00F0E5FE10BD98000400680204006C
:105100007C0204009000040094000400546D72516D
:105110000000000010B516E000F0A8FE0C48C068C2
:10512000C468201D00F05EFE0A480068401E094960
:10513000086009480068401E0749086000F0C0FE8A
:10514000204600F020F8044800680028E4D110BD93
:1051500040020400600004005C00040070B50446D6
:105160000D46206C70B1216CE0680144E160D4E927
:105170000210884201D32168E1602846226CE16870
:10518000FFF78CF870BD10B50446206B00F0B6FE3A
:10519000204600F0B3FE10BD01464A6A22B10A6BF8
:1051A0001268C2F1050000E0002070470146084A7D
:1051B000126812680AB9012200E000220A600A6837
:1051C00022B9034A1268D268106800E000207047D4
:1051D0009000040030B54FF4F043154800F0070488
:1051E0002CB1C01D20F00700114C041B1B1B0246F4
:1051F000104C226000240F4D6C60D018083820F04D
:1052000007000D4C206000240B4D2D686C600A4D8A
:105210002D682C601146441A4C60074C24680C60C1
:10522000064D4C682C60064D4C682C6030BD00006B
:1052300090020400A4000400AC000400B4000400C8
:10524000B000040000BFFFF765FF064800680128B2
:10525000F9D94FF0805004490860BFF34F8FBFF376
:105260006F8FF0E7A001040004ED00E02DE9F041AC
:1052700006460D4617469846069C0DB9246000E088
:105280002760E66325640121204601F0C1F984F816
:105290004C80BDE8F0812DE9F05F82460F469046D4
:1052A0009B460A9E0C9C4FEA8801A522206BFFF7C3
:1052B00007F8A8F10100216B01EB800929F007092B
:1052C00009F0070008B9012000E0002050B900BF34
:1052D000502080F31188BFF34F8FBFF36F8F00BF53
:1052E00000BFFEE77FB1002507E0795D04F13400DF
:1052F0004155785D00B902E06D1C0A2DF5D300BF61
:1053000000213D200155052E01D2012000E00020A2
:1053100050B900BF502080F31188BFF34F8FBFF307
:105320006F8F00BF00BFFEE7052E00D30426E662A4
:10533000A664201D00F07DFD04F1180000F079FD49
:105340002461C6F10500A06164625A465146484690
:1053500000F00AFB20600B9808B10B980460BDE8D0
:10536000F09F000010B5002407E004EB84010F4A11
:1053700002EB810000F050FD641C052CF5D30C48B5
:1053800000F04AFD0B4800F047FD0B4800F044FDDB
:105390000A4800F041FD0A4800F03EFD0448094972
:1053A000086004480849086010BD0000A00104001E
:1053B00004020400180204002C020400400204004D
:1053C00054020400540004005800040010B50146C3
:1053D000164800E0006803688B42FBD3024643682E
:1053E00013448B4204D143684C6823444360014614
:1053F0000A464B6813440468A34211D10C4C03685D
:105400002468A34208D04B680468646823444B6056
:1054100003681B680B6005E0054B1B680B6001E02F
:1054200003680B60884200D0016010BDA400040036
:10543000AC0004002DE9F04104460D4616461F4617
:105440004FF0000865602461B5420CD8F01BA169DB
:10545000884202D34FF0010811E0211D094800687D
:1054600000F0EAFC0BE0BE4204D2BD4202D34FF092
:10547000010804E0211D0448006800F0DDFC4046FE
:10548000BDE8F081940004009000040070B505466A
:1054900000F0ECFCA86B08B9012400E0002400F047
:1054A0000FFD204670BD000070B505460E460E4843
:1054B0000068C068C468201D00F094FC94F82800BF
:1054C00000F0040028B132462946204600F0D6F804
:1054D00005E094F8280000F0FE0084F8280020463B
:1054E000216A884770BD0000900004007FB57FE00E
:1054F000019800287CDB039C606908B9012000E06A
:10550000002010B9201D00F06DFC684600F0E2F8A4
:10551000054601980A2869D2DFE800F06805072EE1
:10552000365806082F3700BF00BF00BF94F8280088
:1055300040F0010084F828000298A269811803460F
:105540002A462046FFF776FFA8B194F8280000F01D
:10555000040038B10298A26981182A46204600F05A
:105560008DF805E094F8280000F0FE0084F828008B
:105570002046216A88473AE000BF94F8280000F0EE
:10558000FE0084F8280032E000BF94F8280040F0C4
:10559000010084F828000298A061A06908B10120E8
:1055A00000E0002050B900BF502080F31188BFF305
:1055B0004F8FBFF36F8F00BF00BFFEE7A069411997
:1055C0002B462A462046FFF735FF10E094F82800C6
:1055D00000F0020018B9204600F090FC05E094F8B5
:1055E000280000F0FE0084F8280000E000BF00BFA3
:1055F000002201A90348006801F000F900287FF4A7
:1056000077AF7FBD98000400F8B505460C4600F062
:10561000C9FE684600F05EF80646009820BB44B913
:10562000B54206D801F0DEFC31462846FFF73CFFC4
:105630001CE03CB10E480068006808B9012000E099
:1056400000200446A91B22460A48006800F01CFD01
:1056500001F0C8FC50B94FF0805007490860BFF313
:105660004F8FBFF36F8F01E001F0BCFCF8BD00006D
:10567000940004009800040004ED00E070B50446B6
:105680000D46164604E0A06905442046216A884775
:10569000A06941192B4632462046FFF7CBFE002871
:1056A000F1D170BD09480068006808B9012000E028
:1056B000002020B14FF0FF300549086005E00348A5
:1056C0000068C06800680249086070475400040020
:1056D0008000040070B5044601F09AFA05460748B8
:1056E0000068854204D200F00BF80120206001E040
:1056F0000020206001480560284670BDA00004001D
:1057000070B508E00D480068C06804684FF0FF31CC
:105710002046FFF7C9FE09480068006808B9012063
:1057200000E000200028EDD0044805680448006827
:10573000024908600248056070BD00009000040046
:10574000940004000E480068401C08B9012000E0E5
:10575000002050B900BF502080F31188BFF34F8F55
:10576000BFF36F8F00BF00BFFEE700BF502080F384
:105770001188BFF34F8FBFF36F8F00BF00BFFEE7ED
:10578000C000040008B500BF6846FFF70FFD0446DF
:1057900020460099FFF738FFFFF7A8FEF4E770B541
:1057A000044600F063FB94F9455010E0606A08B9C4
:1057B000012000E0002038B904F1240001F082FB50
:1057C00018B100F0C1FC00E003E0681E45B2002DF6
:1057D000ECDC00BFFF2084F8450000F071FB00F016
:1057E00045FB94F9445010E0206908B9012000E01D
:1057F000002048B904F1100001F064FB08B100F08A
:10580000A3FC681E45B200E001E0002DECDC00BF07
:10581000FF2084F8440000F053FB70BD2DE9F047F1
:1058200005464FF0000900F0BDFD4248006808B988
:10583000FFF7D0FC75B105F00700C0F11008C8F102
:10584000FF30A84201D2012000E0002008B9454401
:1058500000E00025012000EBE570002853D0002D6A
:1058600051D03548006885424DD8344E30460468E2
:1058700001E0264624686068A84202D22068002819
:10588000F7D12C48006884423DD0306800F1080907
:10589000206830606068401B102819D9671907F02C
:1058A000070008B9012000E0002050B900BF5020D7
:1058B00080F31188BFF34F8FBFF36F8F00BF00BF1E
:1058C000FEE76068401B786065603846FFF77EFD44
:1058D000194960680968081A17490860084600688D
:1058E00017490968884203D21348006814490860C0
:1058F000606840F00040606000202060114800684F
:10590000401C1049086001F06DFB09F0070008B960
:10591000012000E0002050B900BF502080F3118822
:10592000BFF34F8FBFF36F8F00BF00BFFEE7484646
:10593000BDE8F087AC000400B0000400A40004003F
:10594000B4000400B80004000648006830B10549FE
:10595000096801F14C00C96C491C016001480068EC
:105960007047000050000400001F4FF08073036078
:10597000001F21F001030360001F054B0360143872
:105980000260001F6FF002030360203870470000C0
:10599000455700082DE9F04F8CB0064600200A90CC
:1059A0003EA090E8004CC068CDE905BECDF810A03F
:1059B00007900FF2EC0ADAE9000ACDE9020A0FF2C9
:1059C000E00ADAE9000ACDE9000A38480068C0F3C5
:1059D00081000B900B9820B1012804D0022828D117
:1059E00003E0334927E0334925E03048001F0068D1
:1059F00000F03F072D48001F0068C0F3881C2B48AB
:105A0000001F0068C0F30140401C4FEA40092748CE
:105A1000001F006800F48008B8F5800F01D1254B05
:105A200000E0234BB3FBF7F000FB0CF0B0FBF9F107
:105A300001E01F4900BF00BF1C480068C0F3031409
:105A400004A8055D21FA05F218480068C0F3822415
:105A500002A8055D22FA05F0099014480068C0F319
:105A600042341DF8045022FA05F0089036B1012E98
:105A700006D0022E06D0032E0AD106E00A9108E0D5
:105A80000A9206E009980A9003E008980A9000E05C
:105A900000BF00BF0A980CB0BDE8F08F0000000006
:105AA000000000000102030406070809083802404C
:105AB0000024F40040787D01074A02EB9011D1F8F0
:105AC000001800F01F0301229A401143024B03EB20
:105AD0009012C2F80018704700300240074A02EBEB
:105AE0009011D1F8001800F01F0301229A40914351
:105AF000024B03EB9012C2F80018704700300240CE
:105B0000074A02EB9011D1F8001800F01F030122A0
:105B10009A401143024B03EB9012C2F800187047F1
:105B20000030024070B504460B46CD1701EB957569
:105B3000AD10A1EB8505AE000F25B540E843CD17AC
:105B400001EB9575AD10A1EB8505AD0004FA05F2EA
:105B5000CD1701EB9575AD1035B1012D0ED0022D8D
:105B600018D0032D2ED121E0184B1B680340174D90
:105B70002B602B461B6813432B6024E0134B1B1D2B
:105B80001B680340114D2D1D2B602B461B681343D2
:105B90002B6018E00D4B08331B6803400B4D083594
:105BA0002B602B461B6813432B600CE0074B0C3318
:105BB0001B680340054D0C352B602B461B681343B7
:105BC0002B6000E000BF00BF70BD0000083801403E
:105BD0002DE9F04704460D460027B846B946002691
:105BE0003349601A8C4235D00CDC32482044E8B18D
:105BF000B0F5806F1FD0B0F5006F21D0B0F5406FC9
:105C000032D122E0B0F5806F29D0B0F5184F03D023
:105C1000B0F51C4F28D104E00320FFF7BBFE074678
:105C200023E00320FFF7B6FE07461EE00220FFF741
:105C3000B1FE074619E00220FFF7ACFE074614E06C
:105C40000220FFF7A7FE07460FE00220FFF7A2FEA3
:105C500007460AE00220FFF79DFE074605E0022006
:105C6000FFF798FE074600E000BF00BFE06800F4C1
:105C7000004070B1780000EB5500B0FBF5F64FF630
:105C8000F07006EA0008C6F3420948EA0900A0607D
:105C90000CE007EB5500B0FBF5F64FF6F07006EAA6
:105CA000000806F00F0948EA0900A060BDE8F08787
:105CB0000078004000BCFFBFC1F30802426070479B
:105CC00010B504463349601A8C424DD00CDC324882
:105CD0002044E0B1B0F5806F22D0B0F5006F31D034
:105CE000B0F5406F52D136E0B0F5806F45D0B0F5D9
:105CF000184F03D0B0F51C4F48D11AE040F60410FD
:105D0000FFF7FEFE40F60410FFF7E8FE3FE040F626
:105D10001100FFF7F5FE40F61100FFF7DFFE36E059
:105D200040F61200FFF7ECFE40F61200FFF7D6FE39
:105D30002DE040F60510FFF7E3FE40F60510FFF7F3
:105D4000CDFE24E040F61300FFF7DAFE40F6130024
:105D5000FFF7C4FE1BE040F61400FFF7D1FE40F64B
:105D60001400FFF7BBFE12E040F61E00FFF7C8FE6E
:105D700040F61E00FFF7B2FE09E040F61F00FFF7F5
:105D8000BFFE40F61F00FFF7A9FE00E000BF00BF06
:105D900010BD00000078004000BCFFBFC16841F4A6
:105DA0000051C160704710B5024602EB91100068C7
:105DB00001F01F040123A340184008B1012010BDC9
:105DC0000020FCE70A460021C16821F004011143CC
:105DD000C16070470A460021C16821F008011143E3
:105DE000C160704701460A69D1E901309860D1E984
:105DF000010358605068884201D1886850600020D3
:105E000008611068401E1060106870470148006803
:105E1000704700006000040000F1080141604FF08D
:105E2000FF31816000F10801C16001610021016062
:105E3000704700210161704710B502460B685C1C79
:105E40000CB9106907E002F1080000E040684468FE
:105E500024689C42FAD944684C604C68A160886010
:105E600041600A611468641C146010BD00BF5020BA
:105E700080F31188BFF34F8FBFF36F8F00BF0E48C1
:105E80000068401C0C49086008460068012812D1CF
:105E90000A480068C0B208B9012000E0002050B9EB
:105EA00000BF502080F31188BFF34F8FBFF36F8F77
:105EB00000BF00BFFEE77047C000040004ED00E033
:105EC0000D48006850B900BF502080F31188BFF31F
:105ED0004F8FBFF36F8F00BF00BFFEE7064800681B
:105EE000401E054908600846006820B9002080F37C
:105EF000118800BF00BF7047C000040070B506469F
:105F00003546002E3BD0083D2C466068C00F50B986
:105F100000BF502080F31188BFF34F8FBFF36F8F06
:105F200000BF00BFFEE7206808B9012000E00020A4
:105F300050B900BF502080F31188BFF34F8FBFF3DB
:105F40006F8F00BF00BFFEE76068C00FB8B1206868
:105F5000A8B9606820F00040606000F023FA0849AA
:105F6000606809680844064908602046FFF72EFA71
:105F700004480068401C0349086001F033F870BD14
:105F8000B0000400BC00040000204FF0E0210861D4
:105F90008861064800684FF47A71B0FBF1F0401E4A
:105FA0004FF0E02148610720086170474C00040071
:105FB00070B5FEF761F90446102C16D304F1E02009
:105FC00090F8F05315480078854201DB012000E08D
:105FD000002050B900BF502080F31188BFF34F8FCD
:105FE000BFF36F8F00BF00BFFEE70D48006800F4ED
:105FF000E0600C490968884201D8012000E00020D7
:1060000050B900BF502080F31188BFF34F8FBFF30A
:106010006F8F00BF00BFFEE770BD0000C40004002A
:106020000CED00E0C800040030B502460B4600212C
:1060300052B900BF502484F31188BFF34F8FBFF3D0
:106040006F8F00BF00BFFEE7BBB1002012E00D4C18
:1060500004EBC0046468944203D10A4C04EBC00111
:106060000AE031B9074C54F8304014B9054C04EB40
:10607000C001401C0828EAD300BF09B10B604A6088
:1060800030BD0000600104002DE9F04105460E46D8
:1060900017462C46FFF7EAFE94F94400401C10B95D
:1060A000002084F8440094F94500401C10B90020F9
:1060B00084F84500FFF704FFA06B28B93A46314643
:1060C00004F1240000F062F82046FFF768FBBDE809
:1060D000F081000070B504460025D4B11248006874
:1060E00008B9012000E0002050B900BF502080F323
:1060F0001188BFF34F8FBFF36F8F00BF00BFFEE764
:1061000000F050F900212046FEF7FCFE00F06AFF87
:1061100005463DB94FF0805004490860BFF34F8FEA
:10612000BFF36F8F70BD00008C00040004ED00E031
:10613000034909680160034909684160704700002C
:1061400078000400640004000120014908607047E1
:106150007400040070B504460D4654B900BF5020C9
:1061600080F31188BFF34F8FBFF36F8F00BF00BF65
:10617000FEE70548016818312046FFF75DFE012162
:106180002846FEF7BFFE70BD5000040070B50446FF
:106190000E46154654B900BF502080F31188BFF356
:1061A0004F8FBFF36F8F00BF00BFFEE760680F49DE
:1061B0000968C8610D49826809680A620B49096863
:1061C00018318268516009490968183181600749AE
:1061D00009688C622168491C21600DB14FF0FF36BF
:1061E00029463046FEF78EFE70BD000050000400C8
:1061F0002DE9F04706460F4634464FF00109002EC0
:106200007AD0E06C50B900BF502080F31188BFF302
:106210004F8FBFF36F8F00BF00BFFEE7A06CB84287
:1062200001D23D4600E0A56CE06AA84264D0E06C73
:10623000012861D131480068844201D0012000E08A
:10624000002050B900BF502080F31188BFF34F8F5A
:10625000BFF36F8F00BF00BFFEE7D4F82C80E5626C
:10626000A06900F0004010B9C5F10500A06108EB7D
:106270008801234A02EB81016069884201D1012033
:1062800000E00020C0B3201DFFF7ACFD40B994F83A
:106290002C10012088401B4909688143194801607E
:1062A00094F82C10012088401649096808431549C4
:1062B0000860E16A01EB8101114A02EB8101486843
:1062C000A0608268E260211D826851608160E16A9D
:1062D00001EB81010A4A02EB81026261E16A01EB92
:1062E0008101074A52F82110491CE26A02EB82023E
:1062F000034B43F8221000BFBDE8F08750000400B4
:10630000A0010400680004001CB51E4800210B46D3
:106310008222CDE900101CA11D4800F035FC044686
:10632000012C02D100F01AFF0446012C15D100BF48
:10633000502080F31188BFF34F8FBFF36F8F00BFE2
:106340004FF0FF3013490860012013490860002016
:106350001249086000F074F810E0601C08B10120D8
:1063600000E0002050B900BF502080F31188BFF337
:106370004F8FBFF36F8F00BF00BFFEE70848006874
:106380001CBD00008400040049444C45000000008E
:1063900045520008800004006C0004006400040002
:1063A0008800040002480068401C014908607047EA
:1063B0008C0004001D48006818B101201C490860C9
:1063C00032E000201A4908601A480068B0FA80F0EC
:1063D000C0F11F0101EB8100174A52F8200008B1FB
:1063E000012000E0002050B900BF502080F3118848
:1063F000BFF34F8FBFF36F8F00BF00BFFEE701EB0E
:1064000081020D4B03EB820042685268426000F14A
:1064100008024368934202D142685268426042686F
:10642000D268064B1A6000BF704700008C00040061
:106430007400040068000400A0010400500004007F
:106440001CB5524800685249884201D0012000E042
:10645000002050B900BF502080F31188BFF34F8F48
:10646000BFF36F8F00BF00BFFEE748480068484990
:10647000491E884201D0012000E0002050B900BF31
:10648000502080F31188BFF34F8FBFF36F8F00BF91
:1064900000BFFEE73F49084600780190FF200A460A
:1064A00010700846007800909DF8000000F0F000A1
:1064B0009DF80020904201D1012000E0002050B959
:1064C00000BF502080F31188BFF34F8FBFF36F8F51
:1064D00000BF00BFFEE79DF8000000F050002E4A0C
:1064E000107007202D4A106009E02C480068401EFB
:1064F0002A4A10609DF800004006000E00909DF8AA
:10650000000000F080008028EFD024480068C0F12F
:106510000700042801D1012000E0002050B900BF8D
:10652000502080F31188BFF34F8FBFF36F8F00BFF0
:1065300000BFFEE7194800680002184A10601046C4
:10654000008800F4E0601060124A019810700F4853
:106550002030006840F470000C4920310860084683
:10656000006840F070400860FFF70EFD00200C4905
:106570000860FDF749FE0B48006840F040400949BB
:106580000860FDF72DFE00201CBD000000ED00E0BE
:1065900071C20F4100E400E0C4000400C800040020
:1065A000C000040034EF00E02DE9F84305460E4634
:1065B00017460024E5B1601EB0FBF5F0B04217D3DA
:1065C00005FB06F010F1510F12D805FB06F808F193
:1065D0005000FFF723F90446B4B1A14609F1500970
:1065E0003B464A46314628460094FEF73FFE0BE004
:1065F00054B900BF502080F31188BFF34F8FBFF311
:106600006F8F00BF00BFFEE72046BDE8F8830000A3
:106610002DE9F04105460E4601272C4654B900BF2E
:10662000502080F31188BFF34F8FBFF36F8F00BFEF
:1066300000BFFEE7002C42D0E06B00283FD04FF0B7
:10664000FF31E06BB1FBF0F0216C884237D3FFF7EC
:106650000DFCD4E90F12206801FB0200A0600020AD
:10666000A06320686060E06B401E226C216800FB24
:106670000211E160FF2084F8440084F845009EB9CF
:10668000206908B9012000E00020A8B904F1100039
:1066900000F018FC80B14FF0805013490860BFF340
:1066A0004F8FBFF36F8F07E004F11000FFF7B4FBCB
:1066B00004F12400FFF7B0FBFFF702FC00E0002725
:1066C0000FB1012000E0002050B900BF502080F33E
:1066D0001188BFF34F8FBFF36F8F00BF00BFFEE77E
:1066E0003846BDE8F081000004ED00E02DE9F05FE0
:1066F000074688463C4654B900BF502080F31188B5
:10670000BFF34F8FBFF36F8F00BF00BFFEE7206C5A
:1067100008B9012000E0002050B900BF502080F3EC
:106720001188BFF34F8FBFF36F8F00BF00BFFEE72D
:10673000206808B9A06808B9012000E0002050B91D
:1067400000BF502080F31188BFF34F8FBFF36F8FCE
:1067500000BF00BFFEE7FFF72BFC00BF5021EFF3A7
:10676000118081F31188BFF34F8FBFF36F8F00BF8C
:106770000546D4F838A0E06B504536D994F9456009
:106780000AF10100A063701C88B9606A08B9012091
:1067900000E0002030BB04F1240000F093FB08B3BC
:1067A000B8F1000F1ED00120C8F800001AE0FFF772
:1067B0002DFB83465E4514D27F2E01D0012000E0E0
:1067C000002050B900BF502080F31188BFF34F8FD5
:1067D000BFF36F8F00BF00BFFEE7701C40B284F8AC
:1067E000450000BF4FF0010901E04FF0000900BF74
:1067F00085F3118800BF4846BDE8F09F2DE9F741B9
:1068000083B005460E464FF000082C4654B900BF31
:10681000502080F31188BFF34F8FBFF36F8F00BFFD
:1068200000BFFEE70EB9206C08B9012000E000208F
:1068300050B900BF502080F31188BFF34F8FBFF3D2
:106840006F8F00BF00BFFEE700F0D2F908B90598CE
:1068500008B9012000E0002050B900BF502080F3AB
:106860001188BFF34F8FBFF36F8F00BF00BFFEE7EC
:1068700000BFFFF7FBFAA76BF7B131462046FEF7E2
:106880006DFC781EA063206908B9012000E000209B
:1068900060B904F1100000F015FB38B14FF08050E2
:1068A0002F490860BFF34F8FBFF36F8FFFF708FBCF
:1068B000012006B0BDE8F081059818B9FFF700FB8C
:1068C0000020F6E7B8F1000F04D101A8FFF730FC73
:1068D0004FF00108FFF7F4FAFFF764FDFFF7C6FA7F
:1068E00094F94400401C10B9002084F8440094F945
:1068F0004500401C10B9002084F84500FFF7E0FA7D
:1069000005A901A800F0F8F8F0B92046FEF7BEFD91
:10691000A0B104F124000599FFF71CFC2046FEF706
:106920003EFF00F05FFB0028A3D14FF080500C49E0
:106930000860BFF34F8FBFF36F8F9AE72046FEF7D3
:106940002EFF00F04FFB94E72046FEF728FF00F0F3
:1069500049FB2046FEF79AFD00288AD00020A8E7D0
:1069600004ED00E02DE9F34182B0054600272C46F6
:10697000B84654B900BF502080F31188BFF34F8F41
:10698000BFF36F8F00BF00BFFEE7206C08B9012086
:1069900000E0002050B900BF502080F31188BFF301
:1069A0004F8FBFF36F8F00BF00BFFEE700F020F9ED
:1069B00008B9039808B9012000E0002050B900BFD1
:1069C000502080F31188BFF34F8FBFF36F8F00BF4C
:1069D00000BFFEE700BFFFF749FAA66BFEB1701ECD
:1069E000A063206810B9FEF7AFFFA060206908B966
:1069F000012000E0002060B904F1100000F062FA0C
:106A000038B14FF080503B490860BFF34F8FBFF360
:106A10006F8FFFF755FA012004B0BDE8F0810398AD
:106A200018B9FFF74DFA0020F6E71FB96846FFF7DF
:106A30007FFB0127FFF744FAFFF7B4FCFFF716FAD4
:106A400094F94400401C10B9002084F8440094F9E3
:106A50004500401C10B9002084F84500FFF730FACB
:106A600003A9684600F048F840BB2046FEF70EFD3B
:106A7000F0B1206838B9FFF7F9F9A06800F0ACF977
:106A80008046FFF71DFA04F124000399FFF762FB2B
:106A90002046FEF784FE00F0A5FA00289BD14FF0B7
:106AA000805014490860BFF34F8FBFF36F8F92E798
:106AB0002046FEF774FE00F095FA8CE72046FEF7BC
:106AC0006EFE00F08FFA2046FEF7E0FC002882D030
:106AD000B8F1000F0BD0FFF7C9F92046FEF75CFBB9
:106AE00006463146A068FFF783FBFFF7E9F900206F
:106AF00092E7000004ED00E070B505460C4655B97C
:106B000000BF502080F31188BFF34F8FBFF36F8F0A
:106B100000BF00BFFEE754B900BF502080F31188CA
:106B2000BFF34F8FBFF36F8F00BF00BFFEE7FFF7CC
:106B30009DF9134802686868131A2068401C08B958
:106B4000002619E00F4928680968884206D068685D
:106B5000904203D80126002020600DE02068984272
:106B600007D92068C01A20602846FFF7E1FA0026FE
:106B700002E0002020600126FFF7A2F9304670BD38
:106B800064000400780004002DE9FF4F85B08046C2
:106B900089461746DDE912ABB800FEF73FFE064610
:106BA00076B15820FEF73AFE04462CB15821204613
:106BB000FDF78DFB266304E03046FFF79FF900E008
:106BC00000247CB10020CDE900ABCDE902403A467B
:106BD00049464046089BFEF75EFB2046FEF7F2F969
:106BE000012501E04FF0FF35284609B0BDE8F08FE0
:106BF0000549096809B9012005E00449096809B98E
:106C0000022000E0002070476C0004008C000400AB
:106C10000149086870470000640004002DE9F04154
:106C20004FF000086148006800287DD16048006886
:106C3000451C5F48056015BB5E480068006808B9E0
:106C4000012000E0002050B900BF502080F31188DF
:106C5000BFF34F8FBFF36F8F00BF00BFFEE75548F4
:106C6000076855480068534908605348076053480F
:106C70000068401C51490860FEF714FD00BF5048F1
:106C80000068854277D300BF4A480068006808B9A9
:106C9000012000E0002020B14FF0FF30484908609B
:106CA00068E044480068C068C4686668B54202D2BB
:106CB000434806605EE06069D4E902128A60D4E964
:106CC00002214A60211D42688A4201D1E168416087
:106CD000002262610168491E0160A06A98B1A06A41
:106CE000D4E907128A60D4E907214A6004F1180147
:106CF00042688A4201D1216A41600022A262016891
:106D0000491E016000BF94F82C10012088402D49D5
:106D1000096808432B490860E16A01EB81012A4AAE
:106D200002EB8101486800E037E0A0608268E26021
:106D3000211D826851608160E16A01EB8101224A74
:106D400002EB81026261E16A01EB81011E4A52F8A5
:106D50002110491CE26A02EB82021B4B43F822100D
:106D60001A49E06A0968C96A88428DD94FF001085A
:106D70008AE700E000BF15480068C06A00EB8000A9
:106D8000114951F82000012801D94FF0010810489D
:106D9000006808B14FF0010804E00E480068401C8C
:106DA0000C4908604046BDE8F08100008C000400FA
:106DB000640004005400040058000400780004003B
:106DC0008000040068000400A001040050000400DA
:106DD000740004007000040070B505462C460026BF
:106DE000002D67D03449E06A0968C96A88425AD2DE
:106DF000A06900F0004028B92F480068C06AC0F1BF
:106E00000500A061E16A01EB81012C4A02EB8101DE
:106E10006069884201D1012000E00020E0B3201D1C
:106E2000FEF7E0FF40B994F82C1001208840244977
:106E300009688143224801601F480068C06AE06217
:106E400094F82C10012088401D49096808431C490A
:106E50000860E16A01EB8101184A02EB8101486890
:106E6000A0608268E260211D826851608160E16AF1
:106E700001EB8101114A02EB81026261E16A01EBDF
:106E800081010E4A52F82110491CE26A02EB82028B
:106E90000A4B43F8221004E0FFE707480068C06A85
:106EA000E062012606E00449A06C0968C96A8842CC
:106EB00000D20126304670BD50000400A00104003D
:106EC0006800040070B50346D868C16851B900BFB6
:106ED000502080F31188BFF34F8FBFF36F8F00BF37
:106EE00000BFFEE7886AD1E90745A560D1E90754EC
:106EF000656001F118044568A54201D10C6A44603F
:106F000000258D620468641E046030480068002813
:106F10003DD14869D1E90245A560D1E902546560D7
:106F20000C1D4568A54201D1CC68446000254D6127
:106F30000468641E046091F82C400120A040244C99
:106F400024682043224C2060CC6A04EB8404214D49
:106F500005EB8404606888608568CD600C1D8568D9
:106F60006C608460CC6A04EB84041A4D05EB8405E4
:106F70004D61CC6A04EB8404164D55F82440641C22
:106F8000CD6A05EB8505134E46F8254010E0124CFE
:106F90006068C86185680D6201F1180485686C60DD
:106FA00084600D4D8D622C462468641C2C6000BFEB
:106FB0000A4CC86A2468E46AA04204D9012201206C
:106FC000074C206000E00022104670BD8C000400D9
:106FD00068000400A00104002C020400500004001A
:106FE0007400040070B5002400265348006850B9AE
:106FF00000BF502080F31188BFF34F8FBFF36F8F16
:1070000000BF00BFFEE7FEF731FF4B480068401E9F
:10701000494908600846006800287DD14748006853
:10702000002879D05BE04648C068C468A06AD4E90B
:1070300007128A60D4E907214A6004F11801426806
:107040008A4201D1216A41600022A2620168491E80
:1070500001606069D4E902128A60D4E902214A60C1
:10706000211D42688A4201D1E168416000226261CB
:107070000168491E016094F82C10012088403149B4
:10708000096808432F490860E16A01EB81012E4A33
:1070900002EB81014868A0608268E260211D82687D
:1070A00051608160E16A01EB8101274A02EB8102B4
:1070B0006261E16A01EB8101234A52F82110491C07
:1070C000E26A02EB8202204B43F822101F49E06A79
:1070D0000968C96A884202D301201D49086018481E
:1070E000006808B9012000E0002000289BD00CB106
:1070F000FEF7D8FA1748056865B100BFFFF78EFDA7
:1071000010B10120124908606D1E002DF6D100203B
:10711000104908600E4800E009E0006838B1012617
:1071200030070D490860BFF34F8FBFF36F8FFEF735
:10713000C7FE304670BD00008C00040060000400F3
:107140002C02040068000400A001040050000400A8
:10715000740004007000040004ED00E01CB500247D
:10716000FDF7A6FF0E48006858B10E480221002323
:107170004FF48272CDE900100BA10D48FFF704FD1A
:10718000044654B900BF502080F31188BFF34F8FDD
:10719000BFF36F8F00BF00BFFEE720461CBD00009D
:1071A000980004009C000400546D72205376630024
:1071B00085570008D4710008000004006001000039
:1071C000AA430008407200086001040030B90000C2
:1071D000C844000881381331323334352C68656C6B
:1071E0006C6F20776F726C642C12022D360438C2DB
:1071F000EB0B0237041AAA01913C100240042C1434
:107200000240505A085915041105111A0C025A026D
:1072100015791D192C19046A07175E0C040C050C4E
:10722000181A080445040240013220192A111D0CC5
:10723000020C0120B91413020106170D0E062828AE
:04000005080041AD01
:00000001FF
